:1000000009C021C020C0F4C01EC01DC01CC01BC040
:100010001AC019C011241FBECFE9CDBF10E0A0E661
:10002000B0E0E0ECF3E002C005900D92AA36B10713
:10003000D9F720E0AAE6B0E001C01D92AF36B207C2
:10004000E1F73AD1BBC1DCCFB99AB89ABA9AC19854
:10005000C098C2980895EAE6F0E02CE630E068E047
:1000600050E04191862F952F442314F4C19A01C08A
:10007000C198C09AC098440F01970097A9F7E2175A
:10008000F30779F7C29AC2980895672B81F0FA01B5
:10009000E659FF4F21E030E0A90102C0440F551F8F
:1000A0008A95E2F7CA019081892B808310C0FA01FA
:1000B000E659FF4F21E030E0A90102C0440F551F6F
:1000C0008A95E2F7CA018095908189238083C3DFF6
:1000D0000895FB01E659FF4F8083BDDF0895F89432
:1000E000811134C0613079F441E050E061E070E0AA
:1000F00080E090E0CADF41E050E061E070E081E044
:1001000090E0C3DF57C0633079F441E050E060E035
:1001100070E080E090E0B9DF41E050E060E070E046
:1001200081E090E0B2DF46C0623009F043C041E0B8
:1001300050E060E070E080E090E0A7DF41E050E058
:1001400061E070E081E090E0A0DF34C0813091F5A3
:10015000613079F441E050E061E070E082E090E0ED
:1001600094DF41E050E061E070E083E090E08DDFFB
:1001700021C0633079F441E050E060E070E082E05B
:1001800090E083DF41E050E060E070E083E090E0E9
:100190007CDF10C0623071F441E050E060E070E05C
:1001A00082E090E072DF41E050E061E070E083E0E7
:1001B00090E06BDF7894089563E081E090DF62E087
:1001C00080E08DDF089562E081E089DF61E080E01A
:1001D00086DF089562E081E082DF62E080E07FDF19
:1001E000089561E081E07BDF61E080E078DF0895E1
:1001F0001F920F920FB60F9211242F933F934F939C
:100200005F936F937F938F939F93AF93BF93CF939E
:10021000DF93EF93FF9341E050E060E070E084E013
:1002200090E033DF80916C0090916D00CAE0D0E0E7
:10023000BE01B0D0FB01E05AFF4F808190E060E04A
:1002400070E08095909545DF41E050E061E070E01E
:1002500085E090E01ADF41E050E060E070E085E08A
:1002600090E013DF80916C0090916D00BE0192D000
:10027000FC01E05AFF4F808190E060E070E08095E3
:10028000909527DF41E050E061E070E084E090E08D
:10029000FCDEFF91EF91DF91CF91BF91AF919F91E4
:1002A0008F917F916F915F914F913F912F910F901F
:1002B0000FBE0F901F901895C7DE83E083BF82E0CA
:1002C00089BF12BEBB98C39A85E090E090936D0001
:1002D00080936C0071DF2FEF83EE97E52150804013
:1002E0009040E1F700C000007894C5E0D0E00F2E08
:1002F000F9E0CF2ED12CF02D0F2EFCE0EF2EF12CBB
:10030000F02D04E110E0B399FECF2FEF86E791E0E6
:10031000215080409040E1F700C00000B3990CC02C
:1003200080916E008F5F843019F080936E0002C060
:1003300010926E00B39BFECF80916E00811105C0BC
:100340003BDFD0936D00C0936C0080916E008130D4
:1003500029F439DFD0926D00C0926C0080916E005C
:10036000823029F437DFF0926D00E0926C008091CA
:100370006E00833029F435DF10936D0000936C001C
:100380002FEF85EA9EE0215080409040E1F700C0C9
:100390000000B9CFAA1BBB1B51E107C0AA1FBB1F9E
:1003A000A617B70710F0A61BB70B881F991F5A9501
:1003B000A9F780959095BC01CD010895F894FFCFE1
:0A03C0003F065B4F666D7D077F6FFF
:00000001FF
